{
  "contractName": "FacetSmart",
  "abi": [
    {
      "constant": true,
      "inputs": [],
      "name": "shareNo",
      "outputs": [
        {
          "name": "",
          "type": "uint256"
        }
      ],
      "payable": false,
      "stateMutability": "view",
      "type": "function"
    },
    {
      "constant": false,
      "inputs": [
        {
          "name": "_receivers",
          "type": "address[]"
        }
      ],
      "name": "shareTo",
      "outputs": [],
      "payable": false,
      "stateMutability": "nonpayable",
      "type": "function"
    },
    {
      "constant": true,
      "inputs": [],
      "name": "getAttributes",
      "outputs": [
        {
          "name": "keys",
          "type": "bytes32[]"
        },
        {
          "name": "values",
          "type": "bytes32[]"
        }
      ],
      "payable": false,
      "stateMutability": "view",
      "type": "function"
    },
    {
      "constant": false,
      "inputs": [
        {
          "name": "_address",
          "type": "address"
        }
      ],
      "name": "revokeShare",
      "outputs": [
        {
          "name": "",
          "type": "bool"
        }
      ],
      "payable": false,
      "stateMutability": "nonpayable",
      "type": "function"
    },
    {
      "constant": true,
      "inputs": [],
      "name": "userVerified",
      "outputs": [
        {
          "name": "",
          "type": "bool"
        }
      ],
      "payable": false,
      "stateMutability": "view",
      "type": "function"
    },
    {
      "constant": true,
      "inputs": [],
      "name": "userProfile",
      "outputs": [
        {
          "name": "",
          "type": "address"
        }
      ],
      "payable": false,
      "stateMutability": "view",
      "type": "function"
    },
    {
      "constant": true,
      "inputs": [
        {
          "name": "_sender",
          "type": "address"
        }
      ],
      "name": "isVerifier",
      "outputs": [
        {
          "name": "",
          "type": "bool"
        }
      ],
      "payable": false,
      "stateMutability": "view",
      "type": "function"
    },
    {
      "constant": true,
      "inputs": [],
      "name": "userCancelled",
      "outputs": [
        {
          "name": "",
          "type": "bool"
        }
      ],
      "payable": false,
      "stateMutability": "view",
      "type": "function"
    },
    {
      "constant": true,
      "inputs": [
        {
          "name": "_sender",
          "type": "address"
        }
      ],
      "name": "isShared",
      "outputs": [
        {
          "name": "",
          "type": "bool"
        }
      ],
      "payable": false,
      "stateMutability": "view",
      "type": "function"
    },
    {
      "constant": false,
      "inputs": [
        {
          "name": "_address",
          "type": "address"
        }
      ],
      "name": "cancelVerify",
      "outputs": [
        {
          "name": "",
          "type": "bool"
        }
      ],
      "payable": false,
      "stateMutability": "nonpayable",
      "type": "function"
    },
    {
      "constant": true,
      "inputs": [],
      "name": "verifierNo",
      "outputs": [
        {
          "name": "",
          "type": "uint256"
        }
      ],
      "payable": false,
      "stateMutability": "view",
      "type": "function"
    },
    {
      "constant": false,
      "inputs": [
        {
          "name": "_attributKeys",
          "type": "bytes32[]"
        },
        {
          "name": "_attributValues",
          "type": "bytes32[]"
        }
      ],
      "name": "updateAttributes",
      "outputs": [],
      "payable": false,
      "stateMutability": "nonpayable",
      "type": "function"
    },
    {
      "constant": true,
      "inputs": [
        {
          "name": "_attribute",
          "type": "bytes32"
        }
      ],
      "name": "getAttribute",
      "outputs": [
        {
          "name": "",
          "type": "bytes32"
        }
      ],
      "payable": false,
      "stateMutability": "view",
      "type": "function"
    },
    {
      "constant": true,
      "inputs": [
        {
          "name": "_sender",
          "type": "address"
        }
      ],
      "name": "isView",
      "outputs": [
        {
          "name": "",
          "type": "bool"
        }
      ],
      "payable": false,
      "stateMutability": "view",
      "type": "function"
    },
    {
      "constant": false,
      "inputs": [
        {
          "name": "_attributKey",
          "type": "bytes32"
        },
        {
          "name": "_attributValue",
          "type": "bytes32"
        }
      ],
      "name": "updateAttribute",
      "outputs": [],
      "payable": false,
      "stateMutability": "nonpayable",
      "type": "function"
    },
    {
      "constant": true,
      "inputs": [],
      "name": "userDeclined",
      "outputs": [
        {
          "name": "",
          "type": "bool"
        }
      ],
      "payable": false,
      "stateMutability": "view",
      "type": "function"
    },
    {
      "constant": false,
      "inputs": [
        {
          "name": "_invitees",
          "type": "address[]"
        }
      ],
      "name": "inviteToVerify",
      "outputs": [],
      "payable": false,
      "stateMutability": "nonpayable",
      "type": "function"
    },
    {
      "inputs": [
        {
          "name": "_userProfile",
          "type": "address"
        }
      ],
      "payable": false,
      "stateMutability": "nonpayable",
      "type": "constructor"
    }
  ],
  "bytecode": "0x6060604052341561000f57600080fd5b60405160208061144e83398101604052808051906020019091905050806000806101000a81548173ffffffffffffffffffffffffffffffffffffffff021916908373ffffffffffffffffffffffffffffffffffffffff160217905550506113d38061007b6000396000f3006060604052600436106100f0576000357c0100000000000000000000000000000000000000000000000000000000900463ffffffff1680626818ac146100f557806306ef35dd1461011e578063152583de14610178578063200280491461022a57806327ca32061461027b5780632a5de350146102a857806333105218146102fd578063700f86871461034e578063b062636d1461037b578063cb3c893b146103cc578063d03a1b891461041d578063d56be6bb14610446578063eb43e033146104e0578063ee970c4214610523578063f9c5e0aa14610574578063fdafe4b2146105a8578063fffb9ff9146105d5575b600080fd5b341561010057600080fd5b61010861062f565b6040518082815260200191505060405180910390f35b341561012957600080fd5b610176600480803590602001908201803590602001908080602002602001604051908101604052809392919081815260200183836020028082843782019150505050505091905050610635565b005b341561018357600080fd5b61018b610757565b604051808060200180602001838103835285818151815260200191508051906020019060200280838360005b838110156101d25780820151818401526020810190506101b7565b50505050905001838103825284818151815260200191508051906020019060200280838360005b838110156102145780820151818401526020810190506101f9565b5050505090500194505050505060405180910390f35b341561023557600080fd5b610261600480803573ffffffffffffffffffffffffffffffffffffffff169060200190919050506108e5565b604051808215151515815260200191505060405180910390f35b341561028657600080fd5b61028e610a12565b604051808215151515815260200191505060405180910390f35b34156102b357600080fd5b6102bb610aaa565b604051808273ffffffffffffffffffffffffffffffffffffffff1673ffffffffffffffffffffffffffffffffffffffff16815260200191505060405180910390f35b341561030857600080fd5b610334600480803573ffffffffffffffffffffffffffffffffffffffff16906020019091905050610acf565b604051808215151515815260200191505060405180910390f35b341561035957600080fd5b610361610b1b565b604051808215151515815260200191505060405180910390f35b341561038657600080fd5b6103b2600480803573ffffffffffffffffffffffffffffffffffffffff16906020019091905050610bb2565b604051808215151515815260200191505060405180910390f35b34156103d757600080fd5b610403600480803573ffffffffffffffffffffffffffffffffffffffff16906020019091905050610bfe565b604051808215151515815260200191505060405180910390f35b341561042857600080fd5b610430610d2a565b6040518082815260200191505060405180910390f35b341561045157600080fd5b6104de60048080359060200190820180359060200190808060200260200160405190810160405280939291908181526020018383602002808284378201915050505050509190803590602001908201803590602001908080602002602001604051908101604052809392919081815260200183836020028082843782019150505050505091905050610d30565b005b34156104eb57600080fd5b610505600480803560001916906020019091905050610e6b565b60405180826000191660001916815260200191505060405180910390f35b341561052e57600080fd5b61055a600480803573ffffffffffffffffffffffffffffffffffffffff16906020019091905050610f29565b604051808215151515815260200191505060405180910390f35b341561057f57600080fd5b6105a660048080356000191690602001909190803560001916906020019091905050610fc0565b005b34156105b357600080fd5b6105bb6110f8565b604051808215151515815260200191505060405180910390f35b34156105e057600080fd5b61062d600480803590602001908201803590602001908080602002602001604051908101604052809392919081815260200183836020028082843782019150505050505091905050611190565b005b60075481565b60008060009054906101000a900473ffffffffffffffffffffffffffffffffffffffff1673ffffffffffffffffffffffffffffffffffffffff16638da5cb5b6000604051602001526040518163ffffffff167c0100000000000000000000000000000000000000000000000000000000028152600401602060405180830381600087803b15156106c457600080fd5b6102c65a03f115156106d557600080fd5b5050506040518051905073ffffffffffffffffffffffffffffffffffffffff163373ffffffffffffffffffffffffffffffffffffffff1614151561071857600080fd5b600090505b815181101561075357610746828281518110151561073757fe5b906020019060200201516112b2565b808060010191505061071d565b5050565b61075f611342565b610767611342565b61076f611342565b600080600360003373ffffffffffffffffffffffffffffffffffffffff1673ffffffffffffffffffffffffffffffffffffffff168152602001908152602001600020541415806107ff57506000600460003373ffffffffffffffffffffffffffffffffffffffff1673ffffffffffffffffffffffffffffffffffffffff1681526020019081526020016000205414155b151561080a57600080fd5b600090505b600580549050811015610885576002600060058381548110151561082f57fe5b9060005260206000209001546000191660001916815260200190815260200160002054828281518110151561086057fe5b906020019060200201906000191690816000191681525050808060010191505061080f565b60058054806020026020016040519081016040528092919081815260200182805480156108d557602002820191906000526020600020905b815460001916815260200190600101908083116108bd575b5050505050935081925050509091565b60008060009054906101000a900473ffffffffffffffffffffffffffffffffffffffff1673ffffffffffffffffffffffffffffffffffffffff16638da5cb5b6000604051602001526040518163ffffffff167c0100000000000000000000000000000000000000000000000000000000028152600401602060405180830381600087803b151561097457600080fd5b6102c65a03f1151561098557600080fd5b5050506040518051905073ffffffffffffffffffffffffffffffffffffffff163373ffffffffffffffffffffffffffffffffffffffff161415156109c857600080fd5b6001600460008473ffffffffffffffffffffffffffffffffffffffff1673ffffffffffffffffffffffffffffffffffffffff16815260200190815260200160002081905550919050565b600080600360003373ffffffffffffffffffffffffffffffffffffffff1673ffffffffffffffffffffffffffffffffffffffff1681526020019081526020016000205414151515610a6257600080fd5b6001600360003373ffffffffffffffffffffffffffffffffffffffff1673ffffffffffffffffffffffffffffffffffffffff1681526020019081526020016000205414905090565b6000809054906101000a900473ffffffffffffffffffffffffffffffffffffffff1681565b600080600360008473ffffffffffffffffffffffffffffffffffffffff1673ffffffffffffffffffffffffffffffffffffffff1681526020019081526020016000205414159050919050565b600080600360003373ffffffffffffffffffffffffffffffffffffffff1673ffffffffffffffffffffffffffffffffffffffff1681526020019081526020016000205414151515610b6b57600080fd5b60038060003373ffffffffffffffffffffffffffffffffffffffff1673ffffffffffffffffffffffffffffffffffffffff1681526020019081526020016000205414905090565b600080600460008473ffffffffffffffffffffffffffffffffffffffff1673ffffffffffffffffffffffffffffffffffffffff1681526020019081526020016000205414159050919050565b60008060009054906101000a900473ffffffffffffffffffffffffffffffffffffffff1673ffffffffffffffffffffffffffffffffffffffff16638da5cb5b6000604051602001526040518163ffffffff167c0100000000000000000000000000000000000000000000000000000000028152600401602060405180830381600087803b1515610c8d57600080fd5b6102c65a03f11515610c9e57600080fd5b5050506040518051905073ffffffffffffffffffffffffffffffffffffffff163373ffffffffffffffffffffffffffffffffffffffff16141515610ce157600080fd5b60038060008473ffffffffffffffffffffffffffffffffffffffff1673ffffffffffffffffffffffffffffffffffffffff16815260200190815260200160002081905550919050565b60065481565b60008060009054906101000a900473ffffffffffffffffffffffffffffffffffffffff1673ffffffffffffffffffffffffffffffffffffffff16638da5cb5b6000604051602001526040518163ffffffff167c0100000000000000000000000000000000000000000000000000000000028152600401602060405180830381600087803b1515610dbf57600080fd5b6102c65a03f11515610dd057600080fd5b5050506040518051905073ffffffffffffffffffffffffffffffffffffffff163373ffffffffffffffffffffffffffffffffffffffff16141515610e1357600080fd5b600090505b8251811015610e6657610e598382815181101515610e3257fe5b906020019060200201518383815181101515610e4a57fe5b90602001906020020151610fc0565b8080600101915050610e18565b505050565b600080600360003373ffffffffffffffffffffffffffffffffffffffff1673ffffffffffffffffffffffffffffffffffffffff16815260200190815260200160002054141580610efb57506000600460003373ffffffffffffffffffffffffffffffffffffffff1673ffffffffffffffffffffffffffffffffffffffff1681526020019081526020016000205414155b1515610f0657600080fd5b600260008360001916600019168152602001908152602001600020549050919050565b600080600360008473ffffffffffffffffffffffffffffffffffffffff1673ffffffffffffffffffffffffffffffffffffffff16815260200190815260200160002054141580610fb957506000600460008473ffffffffffffffffffffffffffffffffffffffff1673ffffffffffffffffffffffffffffffffffffffff1681526020019081526020016000205414155b9050919050565b6000809054906101000a900473ffffffffffffffffffffffffffffffffffffffff1673ffffffffffffffffffffffffffffffffffffffff16638da5cb5b6000604051602001526040518163ffffffff167c0100000000000000000000000000000000000000000000000000000000028152600401602060405180830381600087803b151561104d57600080fd5b6102c65a03f1151561105e57600080fd5b5050506040518051905073ffffffffffffffffffffffffffffffffffffffff163373ffffffffffffffffffffffffffffffffffffffff161415156110a157600080fd5b806002600084600019166000191681526020019081526020016000208160001916905550600580548060010182816110d99190611356565b9160005260206000209001600084909190915090600019169055505050565b600080600360003373ffffffffffffffffffffffffffffffffffffffff1673ffffffffffffffffffffffffffffffffffffffff168152602001908152602001600020541415151561114857600080fd5b6002600360003373ffffffffffffffffffffffffffffffffffffffff1673ffffffffffffffffffffffffffffffffffffffff1681526020019081526020016000205414905090565b60008060009054906101000a900473ffffffffffffffffffffffffffffffffffffffff1673ffffffffffffffffffffffffffffffffffffffff16638da5cb5b6000604051602001526040518163ffffffff167c0100000000000000000000000000000000000000000000000000000000028152600401602060405180830381600087803b151561121f57600080fd5b6102c65a03f1151561123057600080fd5b5050506040518051905073ffffffffffffffffffffffffffffffffffffffff163373ffffffffffffffffffffffffffffffffffffffff1614151561127357600080fd5b600090505b81518110156112ae576112a1828281518110151561129257fe5b906020019060200201516112fa565b8080600101915050611278565b5050565b6000600460008373ffffffffffffffffffffffffffffffffffffffff1673ffffffffffffffffffffffffffffffffffffffff1681526020019081526020016000208190555050565b6000600360008373ffffffffffffffffffffffffffffffffffffffff1673ffffffffffffffffffffffffffffffffffffffff1681526020019081526020016000208190555050565b602060405190810160405280600081525090565b81548183558181151161137d5781836000526020600020918201910161137c9190611382565b5b505050565b6113a491905b808211156113a0576000816000905550600101611388565b5090565b905600a165627a7a72305820564a874046dcc99655ae015dc0a3262ad109b490ad5c234807c7be60c2a25ff00029",
  "source": "pragma solidity ^0.4.18;\nimport './UserProfile.sol';\n\ncontract FacetSmart {\n  UserProfile public userProfile;  \n  bytes32 private title;\n  mapping (bytes32 => bytes32) private attributes;\n  mapping (address => uint) private verifierList; // 0: pending, 1: verified, 2: declined, 3: cancelled\n  mapping (address => uint) private shareList; // 0: shared 1: revoked\n  bytes32[] attributeKeys;\n  uint public verifierNo;\n  uint public shareNo;\n  \n  function FacetSmart(UserProfile _userProfile) public {\n    userProfile = _userProfile;\n  }\n\n  /// @notice check if the caller is the owner of the contract\n\tmodifier onlyOwner {\n\t\trequire(msg.sender == userProfile.owner());\n\t\t_;\n\t}\n\n\tmodifier onlyViewer {\n\t\trequire(verifierList[msg.sender] != uint(0x0) || shareList[msg.sender] != uint(0x0));\n\t\t_;\n\t}\n\n\tmodifier onlyVerifier {\n\t\trequire(verifierList[msg.sender] != uint(0x0));\n\t\t_;\n\t}\n\n  function isVerifier(address _sender) public view returns (bool) {\n    return verifierList[_sender] != uint(0x0);\n  }\n\n  function isShared (address _sender) public view returns (bool) {\n  \treturn shareList[_sender] != uint(0x0);\n  }\n\n  function isView (address _sender) public view returns (bool) {\n  \treturn (verifierList[_sender] != uint(0x0) || shareList[_sender] != uint(0x0)) ;\n  }\n\n  function getAttributes() public view onlyViewer returns (bytes32[] keys, bytes32[] values) {\n  \tbytes32[] memory attributeValues;\n  \tfor (uint i = 0; i < attributeKeys.length; i++) {\n  \t\tattributeValues[i] = attributes[attributeKeys[i]];\n    }\n  \tkeys = attributeKeys;\n  \tvalues = attributeValues;\n  }\n  \n  function getAttribute(bytes32 _attribute) public view onlyViewer returns (bytes32) {\n  \treturn attributes[_attribute];\n  }\n\n  function shareToOne(address _receiver) private {\n  \tshareList[_receiver] = 0;\n  }\n  function shareTo(address[] _receivers) public onlyOwner {\n  \tfor (uint i = 0; i < _receivers.length; i++) {\n  \t\tshareToOne(_receivers[i]);\n    }\n  }\n  function inviteOneToVerify(address _invitee) private {\n  \tverifierList[_invitee] = 0;//pending\n  }\n\n  function inviteToVerify(address[] _invitees) public onlyOwner {\n  \tfor (uint i = 0; i < _invitees.length; i++) {\n  \t\tinviteOneToVerify(_invitees[i]);\n    }\n  }\n\n  function updateAttribute(bytes32 _attributKey, bytes32 _attributValue) public onlyOwner {\n  \tattributes[_attributKey] = _attributValue;\n  \tattributeKeys.push(_attributKey);\n  }\n\n  function updateAttributes(bytes32[] _attributKeys, bytes32[] _attributValues) public onlyOwner {\n  \tfor (uint i = 0; i < _attributKeys.length; i++) {\n  \t\tupdateAttribute(_attributKeys[i],_attributValues[i]);\n    }\n  }\n\n  function userVerified() public view onlyVerifier returns (bool) {\n  \treturn verifierList[msg.sender] == 1;\n  }\n\n  function userDeclined() public view onlyVerifier returns (bool) {\n  \treturn verifierList[msg.sender] == 2;\n  }\n\n  function userCancelled() public view onlyVerifier returns (bool) {\n  \treturn verifierList[msg.sender] == 3;\n  }\n\n  function cancelVerify(address _address) public onlyOwner returns (bool) {\n  \tverifierList[_address] = 3;\n  }\n\n  function revokeShare(address _address) public onlyOwner returns (bool) {\n  \tshareList[_address] = 1;\n  }\n}\n",
  "sourcePath": "/home/quaywin/Project/nextid/contracts/FacetSmart.sol",
  "compiler": {
    "name": "solc",
    "version": "0.4.18+commit.9cf6e910.Emscripten.clang"
  },
  "schemaVersion": "1.0.1",
  "updatedAt": "2018-01-31T11:07:19.718Z"
}