{
  "contractName": "NextIdNetwork",
  "abi": [
    {
      "constant": true,
      "inputs": [],
      "name": "getUserTotal",
      "outputs": [
        {
          "name": "",
          "type": "uint256"
        }
      ],
      "payable": false,
      "stateMutability": "view",
      "type": "function"
    },
    {
      "constant": true,
      "inputs": [
        {
          "name": "_address",
          "type": "address"
        }
      ],
      "name": "getUserProfile",
      "outputs": [
        {
          "name": "",
          "type": "address"
        }
      ],
      "payable": false,
      "stateMutability": "view",
      "type": "function"
    },
    {
      "constant": true,
      "inputs": [
        {
          "name": "",
          "type": "uint256"
        }
      ],
      "name": "nextIdUserProfiles",
      "outputs": [
        {
          "name": "",
          "type": "address"
        }
      ],
      "payable": false,
      "stateMutability": "view",
      "type": "function"
    },
    {
      "constant": true,
      "inputs": [],
      "name": "admin",
      "outputs": [
        {
          "name": "",
          "type": "address"
        }
      ],
      "payable": false,
      "stateMutability": "view",
      "type": "function"
    },
    {
      "inputs": [
        {
          "name": "_adminAddress",
          "type": "address"
        }
      ],
      "payable": false,
      "stateMutability": "nonpayable",
      "type": "constructor"
    }
  ],
  "bytecode": "0x6060604052341561000f57600080fd5b60405160208061034283398101604052808051906020019091905050806000806101000a81548173ffffffffffffffffffffffffffffffffffffffff021916908373ffffffffffffffffffffffffffffffffffffffff160217905550506102c78061007b6000396000f300606060405260043610610062576000357c0100000000000000000000000000000000000000000000000000000000900463ffffffff16806331f6d80914610067578063987ee15614610090578063d9ad64a414610109578063f851a4401461016c575b600080fd5b341561007257600080fd5b61007a6101c1565b6040518082815260200191505060405180910390f35b341561009b57600080fd5b6100c7600480803573ffffffffffffffffffffffffffffffffffffffff169060200190919050506101ce565b604051808273ffffffffffffffffffffffffffffffffffffffff1673ffffffffffffffffffffffffffffffffffffffff16815260200191505060405180910390f35b341561011457600080fd5b61012a6004808035906020019091905050610237565b604051808273ffffffffffffffffffffffffffffffffffffffff1673ffffffffffffffffffffffffffffffffffffffff16815260200191505060405180910390f35b341561017757600080fd5b61017f610276565b604051808273ffffffffffffffffffffffffffffffffffffffff1673ffffffffffffffffffffffffffffffffffffffff16815260200191505060405180910390f35b6000600180549050905090565b6000600260008373ffffffffffffffffffffffffffffffffffffffff1673ffffffffffffffffffffffffffffffffffffffff16815260200190815260200160002060009054906101000a900473ffffffffffffffffffffffffffffffffffffffff169050919050565b60018181548110151561024657fe5b90600052602060002090016000915054906101000a900473ffffffffffffffffffffffffffffffffffffffff1681565b6000809054906101000a900473ffffffffffffffffffffffffffffffffffffffff16815600a165627a7a723058201b08030fc280eb728466de0b609e8d07d2abcaf8c9e635b0f5b6598776c7b5270029",
  "source": "pragma solidity ^0.4.18;\nimport './UserProfile.sol';\n\ncontract NextIdNetwork {\n  \taddress public admin;  \t\n  \tUserProfile[] public nextIdUserProfiles;\n  \tmapping(address => UserProfile) userList;\n  \t\n\n\tfunction NextIdNetwork(address _adminAddress) public {\n\t\tadmin = _adminAddress;\n\t}\n\n  \tfunction getUserTotal() public view returns (uint) {\n  \t\treturn nextIdUserProfiles.length;\n  \t}\n\n  \t// function isUser(address _address) public returns (bool) {\n  \t// \treturn userList[_address];\n  \t// }\n\n  \tfunction getUserProfile(address _address) public view returns (UserProfile){\n\t\treturn userList[_address];  \t\t\n  \t}\n  \t\n}\n",
  "sourcePath": "/home/quaywin/Project/nextid/contracts/NextIdNetwork.sol",
  "compiler": {
    "name": "solc",
    "version": "0.4.18+commit.9cf6e910.Emscripten.clang"
  },
  "schemaVersion": "1.0.1",
  "updatedAt": "2018-01-31T11:07:19.714Z"
}