{
  "contractName": "UserProfile",
  "abi": [
    {
      "constant": true,
      "inputs": [],
      "name": "getUserName",
      "outputs": [
        {
          "name": "",
          "type": "string"
        }
      ],
      "payable": false,
      "stateMutability": "view",
      "type": "function"
    },
    {
      "constant": false,
      "inputs": [
        {
          "name": "_email",
          "type": "string"
        }
      ],
      "name": "setEmail",
      "outputs": [
        {
          "name": "",
          "type": "string"
        }
      ],
      "payable": false,
      "stateMutability": "nonpayable",
      "type": "function"
    },
    {
      "constant": false,
      "inputs": [
        {
          "name": "_userName",
          "type": "string"
        }
      ],
      "name": "setUserName",
      "outputs": [
        {
          "name": "",
          "type": "string"
        }
      ],
      "payable": false,
      "stateMutability": "nonpayable",
      "type": "function"
    },
    {
      "constant": true,
      "inputs": [],
      "name": "getEmail",
      "outputs": [
        {
          "name": "",
          "type": "string"
        }
      ],
      "payable": false,
      "stateMutability": "view",
      "type": "function"
    },
    {
      "constant": false,
      "inputs": [
        {
          "name": "_networkIdAddress",
          "type": "address"
        }
      ],
      "name": "setNextIdNetwork",
      "outputs": [],
      "payable": false,
      "stateMutability": "nonpayable",
      "type": "function"
    },
    {
      "constant": true,
      "inputs": [],
      "name": "owner",
      "outputs": [
        {
          "name": "",
          "type": "address"
        }
      ],
      "payable": false,
      "stateMutability": "view",
      "type": "function"
    },
    {
      "constant": true,
      "inputs": [],
      "name": "nextIdAddress",
      "outputs": [
        {
          "name": "",
          "type": "address"
        }
      ],
      "payable": false,
      "stateMutability": "view",
      "type": "function"
    },
    {
      "inputs": [
        {
          "name": "_networkIdAddress",
          "type": "address"
        }
      ],
      "payable": false,
      "stateMutability": "nonpayable",
      "type": "constructor"
    }
  ],
  "bytecode": "0x6060604052341561000f57600080fd5b60405160208061090c83398101604052808051906020019091905050336000806101000a81548173ffffffffffffffffffffffffffffffffffffffff021916908373ffffffffffffffffffffffffffffffffffffffff16021790555080600160006101000a81548173ffffffffffffffffffffffffffffffffffffffff021916908373ffffffffffffffffffffffffffffffffffffffff16021790555050610850806100bc6000396000f300606060405260043610610083576000357c0100000000000000000000000000000000000000000000000000000000900463ffffffff16806312958f1c14610088578063282b065a146101165780632b5914fe146101ec5780637e79e8ba146102c25780638ad48ada146103505780638da5cb5b14610389578063bbf93c5b146103de575b600080fd5b341561009357600080fd5b61009b610433565b6040518080602001828103825283818151815260200191508051906020019080838360005b838110156100db5780820151818401526020810190506100c0565b50505050905090810190601f1680156101085780820380516001836020036101000a031916815260200191505b509250505060405180910390f35b341561012157600080fd5b610171600480803590602001908201803590602001908080601f016020809104026020016040519081016040528093929190818152602001838380828437820191505050505050919050506104db565b6040518080602001828103825283818151815260200191508051906020019080838360005b838110156101b1578082015181840152602081019050610196565b50505050905090810190601f1680156101de5780820380516001836020036101000a031916815260200191505b509250505060405180910390f35b34156101f757600080fd5b610247600480803590602001908201803590602001908080601f0160208091040260200160405190810160405280939291908181526020018383808284378201915050505050509190505061055a565b6040518080602001828103825283818151815260200191508051906020019080838360005b8381101561028757808201518184015260208101905061026c565b50505050905090810190601f1680156102b45780820380516001836020036101000a031916815260200191505b509250505060405180910390f35b34156102cd57600080fd5b6102d56105d9565b6040518080602001828103825283818151815260200191508051906020019080838360005b838110156103155780820151818401526020810190506102fa565b50505050905090810190601f1680156103425780820380516001836020036101000a031916815260200191505b509250505060405180910390f35b341561035b57600080fd5b610387600480803573ffffffffffffffffffffffffffffffffffffffff16906020019091905050610681565b005b341561039457600080fd5b61039c610720565b604051808273ffffffffffffffffffffffffffffffffffffffff1673ffffffffffffffffffffffffffffffffffffffff16815260200191505060405180910390f35b34156103e957600080fd5b6103f1610745565b604051808273ffffffffffffffffffffffffffffffffffffffff1673ffffffffffffffffffffffffffffffffffffffff16815260200191505060405180910390f35b61043b61076b565b60028054600181600116156101000203166002900480601f0160208091040260200160405190810160405280929190818152602001828054600181600116156101000203166002900480156104d15780601f106104a6576101008083540402835291602001916104d1565b820191906000526020600020905b8154815290600101906020018083116104b457829003601f168201915b5050505050905090565b6104e361076b565b6000809054906101000a900473ffffffffffffffffffffffffffffffffffffffff1673ffffffffffffffffffffffffffffffffffffffff163373ffffffffffffffffffffffffffffffffffffffff1614151561053e57600080fd5b816003908051906020019061055492919061077f565b50919050565b61056261076b565b6000809054906101000a900473ffffffffffffffffffffffffffffffffffffffff1673ffffffffffffffffffffffffffffffffffffffff163373ffffffffffffffffffffffffffffffffffffffff161415156105bd57600080fd5b81600290805190602001906105d392919061077f565b50919050565b6105e161076b565b60038054600181600116156101000203166002900480601f0160208091040260200160405190810160405280929190818152602001828054600181600116156101000203166002900480156106775780601f1061064c57610100808354040283529160200191610677565b820191906000526020600020905b81548152906001019060200180831161065a57829003601f168201915b5050505050905090565b6000809054906101000a900473ffffffffffffffffffffffffffffffffffffffff1673ffffffffffffffffffffffffffffffffffffffff163373ffffffffffffffffffffffffffffffffffffffff161415156106dc57600080fd5b80600160006101000a81548173ffffffffffffffffffffffffffffffffffffffff021916908373ffffffffffffffffffffffffffffffffffffffff16021790555050565b6000809054906101000a900473ffffffffffffffffffffffffffffffffffffffff1681565b600160009054906101000a900473ffffffffffffffffffffffffffffffffffffffff1681565b602060405190810160405280600081525090565b828054600181600116156101000203166002900490600052602060002090601f016020900481019282601f106107c057805160ff19168380011785556107ee565b828001600101855582156107ee579182015b828111156107ed5782518255916020019190600101906107d2565b5b5090506107fb91906107ff565b5090565b61082191905b8082111561081d576000816000905550600101610805565b5090565b905600a165627a7a7230582061e29327bf6b45da2942f3ee8718dda23c4dbf7fbc1226e5a776a2f50b9ea2250029",
  "source": "pragma solidity ^0.4.18;\n\ncontract UserProfile {\n  \taddress public owner;\n  \taddress public nextIdAddress;\n  \tstring private userName;\n  \tstring private email;\n\taddress[] private facetList;\n\tuint private veriferNo;\n\tuint private shareNo;\n\n\tfunction UserProfile(address _networkIdAddress) public {\n\t\towner = msg.sender;\n\t\tnextIdAddress = _networkIdAddress;\n\t}\n\n\t/// @notice check if the caller is the owner of the contract\n\tmodifier onlyOwner {\n    \trequire(msg.sender == owner);\n    \t_;\n\t}\n\n\t//setters\n\tfunction setNextIdNetwork(address _networkIdAddress) public  onlyOwner {\n\t\tnextIdAddress = _networkIdAddress;\n\t}\n\n\tfunction setUserName(string _userName) public onlyOwner returns (string) {\n\t\tuserName = _userName;\n\t}\n\n\tfunction setEmail(string _email) public onlyOwner returns (string) {\n\t\temail = _email;\n\t}\n\n\t//getters\n\tfunction getUserName() public view returns (string) {\n\t\treturn userName;\n\t}\n\n\tfunction getEmail() public view returns (string) {\n\t\treturn email;\n\t}\n\n\tfunction getFacetList() private view onlyOwner returns (address[]) {\n\t\treturn facetList;\n\t}  \n}\n",
  "sourcePath": "/home/quaywin/Project/nextid/contracts/UserProfile.sol",
  "compiler": {
    "name": "solc",
    "version": "0.4.18+commit.9cf6e910.Emscripten.clang"
  },
  "schemaVersion": "1.0.1",
  "updatedAt": "2018-01-31T12:30:11.979Z"
}